{
  "contracts/DemoV2.sol": {
    "DemoV2": {
      "abi": [
        {
          "inputs": [],
          "name": "increment",
          "outputs": [],
          "stateMutability": "nonpayable",
          "type": "function"
        },
        {
          "inputs": [],
          "name": "score",
          "outputs": [
            {
              "internalType": "uint256",
              "name": "",
              "type": "uint256"
            }
          ],
          "stateMutability": "view",
          "type": "function"
        },
        {
          "inputs": [
            {
              "internalType": "uint256",
              "name": "newScore",
              "type": "uint256"
            }
          ],
          "name": "setScore",
          "outputs": [],
          "stateMutability": "nonpayable",
          "type": "function"
        }
      ],
      "evm": {
        "bytecode": {
          "linkReferences": {},
          "object": "608060405234801561001057600080fd5b506101f5806100206000396000f3fe608060405234801561001057600080fd5b50600436106100415760003560e01c8063422beeba14610046578063d09de08a14610062578063efedc6691461006c575b600080fd5b610060600480360381019061005b91906100c6565b61008a565b005b61006a610094565b005b6100746100ab565b60405161008191906100fe565b60405180910390f35b8060008190555050565b60016000546100a39190610119565b600081905550565b60005481565b6000813590506100c0816101a8565b92915050565b6000602082840312156100d857600080fd5b60006100e6848285016100b1565b91505092915050565b6100f88161016f565b82525050565b600060208201905061011360008301846100ef565b92915050565b60006101248261016f565b915061012f8361016f565b9250827fffffffffffffffffffffffffffffffffffffffffffffffffffffffffffffffff0382111561016457610163610179565b5b828201905092915050565b6000819050919050565b7f4e487b7100000000000000000000000000000000000000000000000000000000600052601160045260246000fd5b6101b18161016f565b81146101bc57600080fd5b5056fea26469706673582212200f5c41bf99e92759d432b311120fd5d63887ac5b990185803145c5abb2fe9cb564736f6c63430008040033",
          "opcodes": "PUSH1 0x80 PUSH1 0x40 MSTORE CALLVALUE DUP1 ISZERO PUSH2 0x10 JUMPI PUSH1 0x0 DUP1 REVERT JUMPDEST POP PUSH2 0x1F5 DUP1 PUSH2 0x20 PUSH1 0x0 CODECOPY PUSH1 0x0 RETURN INVALID PUSH1 0x80 PUSH1 0x40 MSTORE CALLVALUE DUP1 ISZERO PUSH2 0x10 JUMPI PUSH1 0x0 DUP1 REVERT JUMPDEST POP PUSH1 0x4 CALLDATASIZE LT PUSH2 0x41 JUMPI PUSH1 0x0 CALLDATALOAD PUSH1 0xE0 SHR DUP1 PUSH4 0x422BEEBA EQ PUSH2 0x46 JUMPI DUP1 PUSH4 0xD09DE08A EQ PUSH2 0x62 JUMPI DUP1 PUSH4 0xEFEDC669 EQ PUSH2 0x6C JUMPI JUMPDEST PUSH1 0x0 DUP1 REVERT JUMPDEST PUSH2 0x60 PUSH1 0x4 DUP1 CALLDATASIZE SUB DUP2 ADD SWAP1 PUSH2 0x5B SWAP2 SWAP1 PUSH2 0xC6 JUMP JUMPDEST PUSH2 0x8A JUMP JUMPDEST STOP JUMPDEST PUSH2 0x6A PUSH2 0x94 JUMP JUMPDEST STOP JUMPDEST PUSH2 0x74 PUSH2 0xAB JUMP JUMPDEST PUSH1 0x40 MLOAD PUSH2 0x81 SWAP2 SWAP1 PUSH2 0xFE JUMP JUMPDEST PUSH1 0x40 MLOAD DUP1 SWAP2 SUB SWAP1 RETURN JUMPDEST DUP1 PUSH1 0x0 DUP2 SWAP1 SSTORE POP POP JUMP JUMPDEST PUSH1 0x1 PUSH1 0x0 SLOAD PUSH2 0xA3 SWAP2 SWAP1 PUSH2 0x119 JUMP JUMPDEST PUSH1 0x0 DUP2 SWAP1 SSTORE POP JUMP JUMPDEST PUSH1 0x0 SLOAD DUP2 JUMP JUMPDEST PUSH1 0x0 DUP2 CALLDATALOAD SWAP1 POP PUSH2 0xC0 DUP2 PUSH2 0x1A8 JUMP JUMPDEST SWAP3 SWAP2 POP POP JUMP JUMPDEST PUSH1 0x0 PUSH1 0x20 DUP3 DUP5 SUB SLT ISZERO PUSH2 0xD8 JUMPI PUSH1 0x0 DUP1 REVERT JUMPDEST PUSH1 0x0 PUSH2 0xE6 DUP5 DUP3 DUP6 ADD PUSH2 0xB1 JUMP JUMPDEST SWAP2 POP POP SWAP3 SWAP2 POP POP JUMP JUMPDEST PUSH2 0xF8 DUP2 PUSH2 0x16F JUMP JUMPDEST DUP3 MSTORE POP POP JUMP JUMPDEST PUSH1 0x0 PUSH1 0x20 DUP3 ADD SWAP1 POP PUSH2 0x113 PUSH1 0x0 DUP4 ADD DUP5 PUSH2 0xEF JUMP JUMPDEST SWAP3 SWAP2 POP POP JUMP JUMPDEST PUSH1 0x0 PUSH2 0x124 DUP3 PUSH2 0x16F JUMP JUMPDEST SWAP2 POP PUSH2 0x12F DUP4 PUSH2 0x16F JUMP JUMPDEST SWAP3 POP DUP3 PUSH32 0xFFFFFFFFFFFFFFFFFFFFFFFFFFFFFFFFFFFFFFFFFFFFFFFFFFFFFFFFFFFFFFFF SUB DUP3 GT ISZERO PUSH2 0x164 JUMPI PUSH2 0x163 PUSH2 0x179 JUMP JUMPDEST JUMPDEST DUP3 DUP3 ADD SWAP1 POP SWAP3 SWAP2 POP POP JUMP JUMPDEST PUSH1 0x0 DUP2 SWAP1 POP SWAP2 SWAP1 POP JUMP JUMPDEST PUSH32 0x4E487B7100000000000000000000000000000000000000000000000000000000 PUSH1 0x0 MSTORE PUSH1 0x11 PUSH1 0x4 MSTORE PUSH1 0x24 PUSH1 0x0 REVERT JUMPDEST PUSH2 0x1B1 DUP2 PUSH2 0x16F JUMP JUMPDEST DUP2 EQ PUSH2 0x1BC JUMPI PUSH1 0x0 DUP1 REVERT JUMPDEST POP JUMP INVALID LOG2 PUSH5 0x6970667358 0x22 SLT KECCAK256 0xF 0x5C COINBASE 0xBF SWAP10 0xE9 0x27 MSIZE 0xD4 ORIGIN 0xB3 GT SLT 0xF 0xD5 0xD6 CODESIZE DUP8 0xAC JUMPDEST SWAP10 ADD DUP6 DUP1 BALANCE GASLIMIT 0xC5 0xAB 0xB2 INVALID SWAP13 0xB5 PUSH5 0x736F6C6343 STOP ADDMOD DIV STOP CALLER "
        },
        "methodIdentifiers": {
          "increment()": "d09de08a",
          "score()": "efedc669",
          "setScore(uint256)": "422beeba"
        }
      }
    }
  }
}