{
  "_format": "hh-sol-artifact-1",
  "contractName": "DemoV2",
  "sourceName": "contracts/DemoV2.sol",
  "abi": [
    {
      "inputs": [],
      "name": "increment",
      "outputs": [],
      "stateMutability": "nonpayable",
      "type": "function"
    },
    {
      "inputs": [],
      "name": "score",
      "outputs": [
        {
          "internalType": "uint256",
          "name": "",
          "type": "uint256"
        }
      ],
      "stateMutability": "view",
      "type": "function"
    },
    {
      "inputs": [
        {
          "internalType": "uint256",
          "name": "newScore",
          "type": "uint256"
        }
      ],
      "name": "setScore",
      "outputs": [],
      "stateMutability": "nonpayable",
      "type": "function"
    }
  ],
  "bytecode": "0x608060405234801561001057600080fd5b506101f5806100206000396000f3fe608060405234801561001057600080fd5b50600436106100415760003560e01c8063422beeba14610046578063d09de08a14610062578063efedc6691461006c575b600080fd5b610060600480360381019061005b91906100c6565b61008a565b005b61006a610094565b005b6100746100ab565b60405161008191906100fe565b60405180910390f35b8060008190555050565b60016000546100a39190610119565b600081905550565b60005481565b6000813590506100c0816101a8565b92915050565b6000602082840312156100d857600080fd5b60006100e6848285016100b1565b91505092915050565b6100f88161016f565b82525050565b600060208201905061011360008301846100ef565b92915050565b60006101248261016f565b915061012f8361016f565b9250827fffffffffffffffffffffffffffffffffffffffffffffffffffffffffffffffff0382111561016457610163610179565b5b828201905092915050565b6000819050919050565b7f4e487b7100000000000000000000000000000000000000000000000000000000600052601160045260246000fd5b6101b18161016f565b81146101bc57600080fd5b5056fea26469706673582212200f5c41bf99e92759d432b311120fd5d63887ac5b990185803145c5abb2fe9cb564736f6c63430008040033",
  "linkReferences": {},
  "deployedLinkReferences": {}
}